:020000040000FA
:100000001F28000000000000E00B01280800620823
:10001000E300000000000000E30B0928E10B0728C3
:1000200008006608E7006508E8000000000000001E
:10003000E80B1528E70B1328E40B1128080083169A
:1000400086018701031788018901831203132C207D
:100050004620412056202B280710013086003820EA
:100060000C30860038203C30860038200714080009
:1000700087146C206C2087106C200800071438202F
:1000800008000710C0308600382008004A3086007B
:100090003E20453086003E20533086003E205530BD
:1000A00086003E20533086003E2008004130860006
:1000B0003E204C3086003E20423086003E204530B7
:1000C00086003E20523086003E20543086003E207E
:1000D0004F3086003E2008000A30E1000A30E2007E
:0400E00007200800ED
:0400E40000340034B0
:02400E00E22BA3
:02401000FF3F70
:00000001FF
