:020000040000FA
:020000003428A2
:040002000034003492
:08000800F000030EF10083017A
:100010000A08F2009C2882073034313432343334F9
:100020003434353436343734383439340000000051
:100030000000E00B162808006208E3000000000042
:100040000000E30B1E28E10B1C2808006608E700EF
:100050006508E800000000000000E80B2A28E70B14
:100060002828E40B262808008501860183168801CC
:1000700087018730810003178801890103138312E8
:100080002721EC20A301A401A501A601A701A80135
:10009000A90147213D3081000B118B168B171A30B7
:1000A000A2000230A100BD204E21061D5C284E2179
:1000B000061958284E216928061C53284E21061877
:1000C0005F284E21A10B5328A30AA20B5128A30A93
:1000D0004F280B15DE202608AD2027210E212808E9
:1000E0000B208800392127080B20880039213C216A
:1000F0004430880039213A30880039213008AD2059
:1001000028080B208800392127080B208800392176
:100110002030880039215430880039213A30880055
:1001200039212508AD2028080B208800392127080F
:100130000B20880039216300A40A2408143A031D07
:10014000A328A50AA4013D3081000B1172088A0082
:10015000710E8300F00E700E0900A900A701A8011E
:10016000A90803190800A70A27080A3A031DBA2894
:10017000A701A80AA90BB32808002721543088003A
:1001800039214930880039214530880039214D30E6
:10019000880039215030880039214F3088003921BA
:1001A0003A30880039212508AD2028080B20880026
:1001B000392127080B20880039210800A6012308CF
:1001C000B0002508A302031CE9280319E928A60AA0
:1001D000E1280319A60A080052308800392141306D
:1001E0008800392150308800392149308800392170
:1001F0004430880039214F30880039214D30880043
:100200003921453088003921543088003921523055
:10021000880039214F308800392108005230880089
:100220003921413088003921503088003921493046
:10023000880039214430880039214530880039212F
:100240005A30880039213D308800392108000711D3
:100250000130880033210C30880033213C30880085
:1002600033210715080087154121412187114121BC
:1002700008000715332108000711C030880033211A
:1002800008000A30E1000A30E2001C200800061DC8
:1002900047294E2106194A294E2108002C30E10039
:0802A0005E30E2001C200800A2
:02400E00E22BA3
:02401000FF3F70
:00000001FF
