:020000040000FA
:02000000FF28D7
:040002000034003492
:08000800F000030EF10083017A
:100010000A08F200E9298207C034F934A434B03464
:10002000993492348234F834803498348834833468
:10003000C634A13486348E3482073F3406345B34B0
:100040004F3466346D347D3407347F346F34773405
:100050007C3439345E347934713482078A34C5345F
:10006000F234F2348207553455345634553482070D
:10007000103404341F340D348207C834E534F334AB
:10008000FA348207563456345634563482070434D0
:100090002B34263425348207CC34E634F334FA3456
:1000A0008207563456345634563482072834103476
:1000B000053414348207CF34E834F434FA34820738
:1000C0005634563456345634820728342734103484
:1000D00004348207D134E934F534FB3482075634D2
:1000E0005634563456348207053415341C342034C3
:1000F0008207D434EA34F634FB348207563456345B
:100100005634563482070D3409342B3412348207A6
:10011000D734EC34F634FE34820756345634563431
:10012000573482072834273410342F348207D934C7
:10013000ED34F734FC348207563456345634563492
:10014000820719341E34213422348207DB34EE3422
:10015000F734FC348207563456345634563482070A
:100160000F341934093416348207DD34EF34F8348F
:10017000FC348207563456345634563482070C34D5
:1001800018341E340B348207DF34F034F834FD3475
:100190008207563456345634563482070C34183499
:1001A00009342C348207E134F134F934FD34820708
:1001B0005634563456345634820711341C341F34A6
:1001C0002234000000000000E00BE1280800620873
:1001D000E300000000000000E30BE928E10BE72842
:1001E00008006608E7006508E8000000000000005D
:1001F000E80BF528E70BF328E40BF1280800831639
:10020000F030870085018801F0308600FF309600CD
:1002100081138112011281110317880189010313CF
:10022000831206080B100B118B158B178701FF30FB
:100230008500A401A501A601A701A801A901C1216A
:10024000301C30290930A400A500A600A700A80092
:10025000A9006D29A901A801A701A601A501A40172
:10026000B1019C210000000000000000CA21B11B68
:100270006D29311B9321A40A0A302406031D30295D
:100280000000A50A0A302506031D2F2900000000E2
:10029000A60A0A302606031D2E29A70A0A302706B9
:1002A000031D2D290000A80A0A302806031D2C2949
:1002B000000000000000A90A0A302906031D2B29AE
:1002C0002A290930A9000930A8000930A7000930FF
:1002D000A6000930A5000930A400B1019C21CA2163
:1002E000B11B3029311B9321A403FF302406031DC9
:1002F0006D29A503FF302506031D6B29A603FF30DA
:100300002606031D6929A703FF302706031D672959
:10031000A803FF302806031D6529A903FF3029061D
:10032000031D632961299C21071F9329D921071BDC
:100330009729D921B101080024081C208800051044
:10034000DF21051425081C2088008510DF21851475
:1003500026081C2088000511DF21051527081C2010
:1003600088008511DF21851528081C2088000512CA
:10037000DF21051629081C2088008512DF2185163B
:1003800008000030871B0130B000D921871BC62927
:10039000D92108000708C03903190800D921071B13
:1003A0003117871BB1170708C039031DD329D9217D
:1003B00008008E30E1003A30E200E72008006630A5
:1003C000E1000230E200E720000000000000000031
:1003D0000800D921C0010608061AF0290C30F929B5
:1003E000861AF4290830F929061BF8290430F9295E
:1003F0000030C000860183160F308600FF30950064
:100400008312860181138618072A0230102A0619E2
:100410000B2A0130102A86190F2A0030102A0330C7
:10042000C0074008003A03194E2A4008013A031950
:100430005F2A4008023A0319702A4008033A031958
:10044000812A4008043A0319922A4008053A031900
:10045000A32A4008063A0319B42A4008073A0319A8
:10046000C52A4008083A0319D62A4008093A031950
:10047000E72A40080A3A0319F82A40080B3A0319F8
:10048000092B40080C3A03191A2B40080D3A03199E
:10049000222B40080E3A03192A2B322B48232D20F9
:1004A000C20044083720C50044083220831681006A
:1004B00083123930A3000030B2005A233A2B48236C
:1004C0003C20C20044084620C50044084120831651
:1004D000810083123930A3006D30B2005A233A2BC9
:1004E00048234B20C20044085520C5004408502032
:1004F0008316810083125E30A3000030B2005A23BD
:100500003A2B48235A20C20044086420C5004408FE
:100510005F208316810083125E30A3006D30B2002D
:100520005A233A2B48236920C20044087320C5008F
:1005300044086E208316810083127930A3000030B6
:10054000B2005A233A2B48237820C2004408822064
:10055000C50044087D208316810083127130A300FA
:100560000030B2005A233A2B48238720C2004408A7
:100570009120C50044088C208316810083127130BD
:10058000A3006D30B2005A233A2B48239620C200B4
:100590004408A020C50044089B20831681008312D4
:1005A0007D30A3000030B2005A233A2B4823A52007
:1005B000C2004408AF20C5004408AA208316810069
:1005C00083127D30A3006D30B2005A233A2B4823AA
:1005D000B420C2004408BE20C5004408B9208316D8
:1005E000810083127730A3000030B2005A233A2BE7
:1005F0004823C320C2004408CD20C5004408C820B9
:100600008316810083127730A3006D30B2005A2325
:100610003A2B4823D220C2004408DC20C5004408FD
:10062000D7208316810083127C30A3000030B200F3
:100630005A233A2B0130C10006080F3A031D1C2B28
:10064000D9213A2B0230C10006080F3A031D242B92
:10065000D9213A2B0430C10006080F3A031D2C2B78
:10066000D9213A2B0830C10006080F3A031D342B5C
:10067000D9213A2B8316F0308600831281130608A5
:100680000B1072088A00710E8300F00E700E0900C4
:10069000411C4C2B0030582BC11C502B0130582BC7
:1006A000411D542B0230582BC11D582B0330582BA1
:1006B000C4000800323084003D3085000B11420830
:1006C0008100000888000B1D612B4508C600C60B81
:1006D000672B8709840E850905083C3885000608C4
:0A06E0000F3A031D5E2BD92108001C
:02400E00E22BA3
:02401000FF3F70
:00000001FF
