:020000040000FA
:0200000069286D
:040002000034003492
:080008002A280000000000009E
:10001000E00B052808006208E30000000000000073
:10002000E30B0D28E10B0B2808006608E7006508C4
:10003000E800000000000000E80B1928E70B172873
:10004000E40B152808000C1299008316981C26282A
:10005000831208008C1E322889208C121A0888000E
:100060009B200900A920C0010608061A39280C3077
:100070004228861A3D2808304228061B41280430B1
:1000800042280030C000860183160F308600FF3002
:100090009500831286018113861850280230592852
:1000A0000619542801305928861958280030592833
:1000B0000330C0074008232006080F3A031D5C28C0
:1000C000A9208316F03086008312811306080B10D6
:1000D00009008701860183168801F0308600FF3011
:1000E0009600B3308700CF30810081130317880159
:1000F0008901031324309800193099008C1683125B
:10010000903098000B1706080B108B158B17892061
:10011000882807110130880095200C308800952030
:100120003C3088009520071508008715A320A320E0
:100130008711A32008000715952008000711C0307B
:100140008800952008000A30E1000A30E2000B2008
:0E01500008002C30E1005E30E2000B200800B9
:02400E00E22BA3
:02401000FF3F70
:00000001FF
