:020000040000FA
:10000000850186018701880183168701031788010E
:1000100089010313831287012C201A30A2000130BA
:10002000A1002620060808390319112826203320AC
:1000300006080839031D18283320A10B1128870A48
:100040000130A100A20B1128870A0D28061D080007
:100050003320061929286300061D2C283320061991
:100060002F28332008002C30E4000F30E500293021
:10007000E6004B200800000000000000E00B3B28D9
:1000800008006208E300000000000000E30B4328C2
:10009000E10B412808006608E7006508E800000059
:1000A00000000000E80B4F28E70B4D28E40B4B281D
:0200B000080046
:0400B20000340034E2
:02400E00E22BA3
:02401000FF3F70
:00000001FF
