:020000040000FA
:1000000085018601870188018316870186130317FE
:100010008801890103138312061C0C280808870035
:10002000A10006181128030106080E390319132828
:100030000808A2008618402806194928861956285B
:100040001A28A301A20803193028A108031934288B
:100050002208A102031C382803193828A30A2828DB
:10006000FF30870086176300003087008613630027
:100070008613031D86170319A30A2308870063004C
:10008000210822078700861303188617061C4628B6
:10009000212822082102031C502887008613532898
:1000A000003C87008617061C53282128A4018613CC
:1000B0002108031964282208031964282108A407C9
:1000C00003188617A20B5E2824088700061C6628E2
:0200D0002128E5
:0400D20000340034C2
:02400E00E22BA3
:02401000FF3F70
:00000001FF
