:020000040000FA
:100000008501860187018801831687018601031710
:10001000880189010313831208087739003A03190C
:100020009A2908087739013A0319A7290808773966
:10003000023A0319C32908087739033A0319D52965
:1000400008087739043A0319E72908087739053A87
:100050000319F92908087739063A03190B2A080801
:100060007739073A03191D2A08087739103A031916
:10007000072908087739113A03191429080877392C
:10008000123A03192E2908087739133A031940291F
:1000900008087739143A0319522908087739153AAC
:1000A0000319642908087739163A031976290808CC
:1000B0007739173A0319882908087739203A03193C
:1000C0002F2A08087739213A03193D2A0808773979
:1000D000223A0319572A08087739233A0319692A5B
:1000E00008087739243A03197B2A08087739253A12
:1000F00003198D2A08087739263A03199F2A080818
:100100007739273A0319B12A08087739303A0319A1
:10011000C32A08087739313A0319D02A08087739F1
:10012000323A0319EE2A08087739333A0319002BBB
:1001300008087739343A0319122B08087739353A09
:100140000319242B08087739363A0319362B080887
:100150007739373A0319482B08087739403A031999
:100160005A2B08087739413A0319672B0808773961
:10017000423A0319812B08087739433A0319932B24
:1001800008087739443A0319A52B08087739453A06
:100190000319B72B08087739463A0319C92B080801
:1001A0007739473A0319DB2B08087739503A031996
:1001B000ED2B08087739513A0319FA2B08087739DB
:1001C000523A0319162C08087739533A0319282C88
:1001D00008087739543A03193A2C08087739553A00
:1001E00003194C2C08087739563A03195E2C080875
:1001F0007739573A0319702C08087039603A031997
:10020000822C08087039703A0319902C0C280616B5
:100210008616BF25061286120330E400DE30E500A4
:10022000F730E600DC25072906168616BF250612DC
:100230008612C930E4000230E5009530E600DC2586
:1002400006178617B82506138613C930E400023056
:10025000E5009530E600DC25B8251429061686163B
:10026000BF25061286129E240230A00006178617AC
:10027000B825061386139E24B825A00B36292E29EF
:1002800006168616BF2506128612A8240330A00083
:1002900006178617B82506138613A824B825A00BC1
:1002A0004829402906168616BF2506128612AE2456
:1002B0000430A00006178617B82506138613AE244F
:1002C000B825A00B5A29522906168616BF250612F4
:1002D0008612B4240530A00006178617B825061329
:1002E0008613B424B825A00B6C296429061686163B
:1002F000BF2506128612C0240630A00006178617F6
:10030000B82506138613C024B825A00B7E297629AC
:1003100006168616BF2506128612C6240730A000D0
:1003200006178617B82506138613C624B825A00B12
:100330009029882906168616BF2506128612843053
:10034000E4000C30E5009B30E600DC259A29061617
:100350008616BF25061286122D30E4009930E5007E
:100360001130E600DC25000006178617B8250613B5
:1003700086132D30E4009930E5001130E600DC25CD
:100380000000B825A72906168616BF250612861274
:10039000CC240230A00006178617B8250613861352
:1003A000CC24B825A00BCB29C32906168616BF2559
:1003B00006128612D5240330A00006178617B8252A
:1003C00006138613D524B825A00BDD29D5290616DA
:1003D0008616BF2506128612DD240430A0000617FB
:1003E0008617B82506138613DD24B825A00BEF2940
:1003F000E72906168616BF2506128612E824053060
:10040000A00006178617B82506138613E824B8251A
:10041000A00B012AF92906168616BF250612861298
:10042000EE240630A00006178617B825061386139B
:10043000EE24B825A00B132A0B2A06168616BF2514
:1004400006128612F6240730A00006178617B82574
:1004500006138613F624B825A00B252A1D2A061696
:100460008616BF2506128612BA30E4000630E50073
:100470008430E600DC2500002F2A06168616BF25EC
:10048000061286123A30E4009030E5000830E600AB
:10049000DC2506178617B825061386133A30E400C4
:1004A0009030E5000830E600DC25B8253D2A061628
:1004B0008616BF250612861202250230A0000617F6
:1004C0008617B825061386130225B825A00B5F2AC8
:1004D000572A06168616BF25061286120B250330EC
:1004E000A00006178617B825061386130B25B82516
:1004F000A00B712A692A06168616BF2506128612D7
:1005000013250430A00006178617B8250613861396
:100510001325B825A00B832A7B2A06168616BF252D
:10052000061286121B250530A00006178617B8256F
:10053000061386131B25B825A00B952A8D2A0616AF
:100540008616BF250612861221250630A000061742
:100550008617B825061386132125B825A00BA72AD0
:100560009F2A06168616BF250612861228250730F2
:10057000A00006178617B825061386132825B82568
:10058000A00BB92AB12A06168616BF2506128612B6
:100590001230E4009C30E5002D30E600DC25C32A53
:1005A00006168616BF25061286127E30E40003303A
:1005B000E5008730E600DC250000000006178617FE
:1005C000B825061386137E30E4000330E50087303B
:1005D000E600DC2500000000B825D02A06168616A5
:1005E000BF25061286122E250230A0000617861798
:1005F000B825061386132E25B825A00BF62AEE2A59
:1006000006168616BF250612861238250330A0006E
:1006100006178617B825061386133825B825A00BAC
:10062000082B002B06168616BF25061286124625B5
:100630000430A00006178617B82506138613462532
:10064000B825A00B1A2B122B06168616BF250612EC
:1006500086124F250530A00006178617B825061309
:1006600086134F25B825A00B2C2B242B0616861697
:10067000BF250612861255250630A00006178617DC
:10068000B825061386135525B825A00B3E2B362B0F
:1006900006168616BF25061286125D250730A000B5
:1006A00006178617B825061386135D25B825A00BF7
:1006B000502B482B06168616BF2506128612793057
:1006C000E400C930E5000330E600DC255A2B0616AD
:1006D0008616BF25061286121C30E4002B30E5007A
:1006E0002330E600DC2506178617B8250613861387
:1006F0001C30E4002B30E5002330E600DC25B82573
:10070000672B06168616BF25061286126325023051
:10071000A00006178617B825061386136325B8258B
:10072000A00B892B812B06168616BF250612861272
:100730006B250330A00006178617B825061386130D
:100740006B25B825A00B9B2B932B06168616BF2571
:100750000612861271250430A00006178617B825E8
:10076000061386137125B825A00BAD2BA52B0616F5
:100770008616BF250612861277250530A0000617BB
:100780008617B825061386137725B825A00BBF2B2F
:10079000B72B06168616BF25061286127D25063053
:1007A000A00006178617B825061386137D25B825E1
:1007B000A00BD12BC92B06168616BF250612861252
:1007C00085250730A00006178617B825061386135F
:1007D0008525B825A00BE32BDB2B06168616BF2537
:1007E00006128612C930E4009530E5000230E600BA
:1007F000DC25ED2B06168616BF250612861205305F
:10080000E4003D30E5007D30E600DC250000061701
:100810008617B825061386130530E4003D30E50041
:100820007D30E600DC250000B825FA2B061686167A
:10083000BF25061286128B250230A00006178617E8
:10084000B825061386138B25B825A00B1E2C162C55
:1008500006168616BF250612861295250330A000BF
:1008600006178617B825061386139525B825A00BFD
:10087000302C282C06168616BF25061286129B25BC
:100880000430A00006178617B825061386139B258B
:10089000B825A00B422C3A2C06168616BF25061248
:1008A0008612A1250530A00006178617B825061365
:1008B0008613A125B825A00B542C4C2C06168616A1
:1008C000BF2506128612AA250630A0000617861735
:1008D000B82506138613AA25B825A00B662C5E2C16
:1008E00006168616BF2506128612B2250730A0000E
:1008F00006178617B82506138613B225B825A00B50
:10090000782C702C06168616BF2506128612B23079
:10091000E400BD30E5000130E600DC250000822C5B
:1009200006168616BF25061286129930E40053304B
:10093000E5000330E600DC250000902CF330E100F8
:10094000D630E200D22500000000000000000800C0
:10095000DE30E100AC30E200D22508009730E10043
:10096000C630E200D22508008730E1008B30E2007B
:10097000D225000000000000000000000000080078
:100980008730E1009730E200D2250800C130E10055
:100990005A30E200D22508000D30E4006130E50055
:1009A0003F30E600DC25000008002A30E4000A3071
:1009B000E5008430E600DC250800E430E100CC30BE
:1009C000E200D22500000000000000000000080046
:1009D000DE30E100AC30E200D2250800D030E1008A
:1009E0009B30E200D225000000000800D430E10076
:1009F0008330E200D225000000000000000000006B
:100A0000000008009F30E4006F30E5000230E6008F
:100A1000DC2500000800F130E4000430E50023305C
:100A2000E600DC2508000C30E4000A30E500E03088
:100A3000E600DC250800EA30E1005D30E200D22566
:100A400008008530E1008930E200D225000008006E
:100A5000B230E1005730E200D2250800C630E40091
:100A60006F30E5000230E600DC25000000000800E1
:100A7000F530E1007730E200D225000000000000F0
:100A8000000000000000000000000800B430E10099
:100A90007F30E200D22500000000000008004C304A
:100AA000E100F430E200D22508006830E100943023
:100AB000E200D225000000000800B230E100493019
:100AC000E200D22508002C30E4000F30E500293088
:100AD000E600DC2508005030E100F730E200D225C6
:100AE00008004E30E100C230E200D2250800563046
:100AF000E1008C30E200D22508002730E100FD3013
:100B0000E200D225000000000800E730E1002330B9
:100B1000E200D2250800AF30E1008B30E200D225A0
:100B200000000000000000000800C130E1005A3061
:100B3000E200D22508006330E1008630E200D225D1
:100B40000800B730E1003930E200D2250000000093
:100B5000000008007B30E1004530E200D2250000B3
:100B600000000800BC30E1002530E200D22508007A
:100B70001630E1004B30E200D2250000080026309C
:100B8000E1005730E200D22500000800B030E1005B
:100B90001730E200D2250800000000000000E00B42
:100BA000CC2D08006208E300000000000000E30B09
:100BB000D42DE10BD22D08006508E7006608E80097
:100BC000000000000000E80BE02DE70BDE2DE40B39
:040BD000DC2D080010
:040BD40000340034B5
:02400E00E22BA3
:02401000FF3F70
:00000001FF
