:020000040000FA
:100000008501860187018801831687010612861300
:100010000317880189010313831206080F39031996
:100020000D288F208618772806197F28861987289B
:10003000061818288F200808A1009E200808A20092
:100040009E209B2036209E209B203E209E209B2091
:1000500048209E209B205C209E200808E4009E20D3
:100060000808E5009E200808E600B62021082207BF
:10007000A30003189C2023088700080022082102FF
:10008000A400031C9C202408861B003C8700080059
:100090008701A501A90121080319080022080319F5
:1000A00008002108A50703182914A20B51282918B4
:1000B0009C202508870008008701A901A2080319D0
:1000C0009C20861F6628FF3087000800A1080319BE
:1000D00008002208A102031C7228A30AA108031920
:1000E00069287428031986172308870008008618D2
:1000F00077288F2006169620061295207A28061952
:100100007F288F20061698200612972082288619AD
:1001100087288F2006169A20061299208A28B03048
:10012000E1001730E200AC200800080008000800D9
:10013000080008000800080086170800061C9E2812
:100140008F200618A1288F208613080000000000C9
:100150000000E00BA62808006208E3000000000091
:100160000000E30BAE28E10BAC2808006608E700AE
:100170006508E800000000000000E80BBA28E70B63
:08018000B828E40BB6280800C2
:04018800003400340B
:02400E00E22BA3
:02401000FF3F70
:00000001FF
