:020000040000FA
:020000005C287A
:040002000034003492
:08000800F000030EF10083017A
:100010000A08F20087288207C034F934A434B034C7
:10002000993492348234F834803498348834833468
:10003000C634A13486348E3482073F3406345B34B0
:100040004F3466346D347D3407347F346F34773405
:100050007C3439345E347934713482073F34063469
:100060005B344F3466346D347D3407347F346F3401
:1000700077347C3439345E347934713400000000D4
:100080000000E00B3E2808006208E30000000000CA
:100090000000E30B4628E10B442808006608E7004F
:1000A0006508E800000000000000E80B5228E70B9C
:1000B0005028E40B4E280800FF3085008801831685
:1000C0000317880189018301831688018501FF30A8
:1000D0009600F03086008312811306080B10A100F1
:1000E0008B158B17FF3088000510D62005140030C3
:1000F00088008510D6208514FF3088000511D62091
:100100000515003088008511D62085157228C72076
:10011000FF308500C0010608A106211C912800308F
:100120009A28A11C952804309A28211D9928083066
:100130009A280C30C00083160F3086008312860187
:1001400081130608A106211EA7280030B028A11E91
:10015000AB280130B028211FAF280230B02803306F
:10016000C00740082D2088000510CD2005148316F7
:10017000F03086008312860181130608A1000B105F
:1001800072088A00710E8300F00E700E09002C3088
:10019000E1005E30E200442008000930E400FD3058
:1001A000E5004930E6004E20000008002C30E10058
:0801B0005E30E200442008006B
:02400E00E22BA3
:02401000FF3F70
:00000001FF
