:020000040000FA
:100000001F28000000000000E00B01280800620823
:10001000E300000000000000E30B0928E10B0728C3
:1000200008006608E7006508E8000000000000001E
:10003000E80B1528E70B1328E40B112808008501AD
:100040008601831685010317880189010313831232
:100050001430A0000608A10021082002A2003120CF
:1000600028280A309B002108A5002208A6000514B4
:100070004220A50B372805104220A60B3B28A70BD2
:0C00800033280800A230E0000120080036
:04008C000034003408
:02400E00E22BA3
:02401000FF3F70
:00000001FF
